{
  "_format": "hh-sol-artifact-1",
  "contractName": "YourContract",
  "sourceName": "contracts/YourContract.sol",
  "abi": [
    {
      "inputs": [
        {
          "internalType": "address",
          "name": "_owner",
          "type": "address"
        }
      ],
      "stateMutability": "nonpayable",
      "type": "constructor"
    },
    {
      "anonymous": false,
      "inputs": [
        {
          "indexed": true,
          "internalType": "address",
          "name": "greetingSetter",
          "type": "address"
        },
        {
          "indexed": false,
          "internalType": "string",
          "name": "newGreeting",
          "type": "string"
        },
        {
          "indexed": false,
          "internalType": "bool",
          "name": "premium",
          "type": "bool"
        },
        {
          "indexed": false,
          "internalType": "uint256",
          "name": "value",
          "type": "uint256"
        }
      ],
      "name": "GreetingChange",
      "type": "event"
    },
    {
      "inputs": [],
      "name": "greeting",
      "outputs": [
        {
          "internalType": "string",
          "name": "",
          "type": "string"
        }
      ],
      "stateMutability": "view",
      "type": "function"
    },
    {
      "inputs": [],
      "name": "owner",
      "outputs": [
        {
          "internalType": "address",
          "name": "",
          "type": "address"
        }
      ],
      "stateMutability": "view",
      "type": "function"
    },
    {
      "inputs": [],
      "name": "premium",
      "outputs": [
        {
          "internalType": "bool",
          "name": "",
          "type": "bool"
        }
      ],
      "stateMutability": "view",
      "type": "function"
    },
    {
      "inputs": [
        {
          "internalType": "string",
          "name": "_newGreeting",
          "type": "string"
        }
      ],
      "name": "setGreeting",
      "outputs": [],
      "stateMutability": "payable",
      "type": "function"
    },
    {
      "inputs": [],
      "name": "totalCounter",
      "outputs": [
        {
          "internalType": "uint256",
          "name": "",
          "type": "uint256"
        }
      ],
      "stateMutability": "view",
      "type": "function"
    },
    {
      "inputs": [
        {
          "internalType": "address",
          "name": "",
          "type": "address"
        }
      ],
      "name": "userGreetingCounter",
      "outputs": [
        {
          "internalType": "uint256",
          "name": "",
          "type": "uint256"
        }
      ],
      "stateMutability": "view",
      "type": "function"
    },
    {
      "inputs": [],
      "name": "withdraw",
      "outputs": [],
      "stateMutability": "nonpayable",
      "type": "function"
    },
    {
      "stateMutability": "payable",
      "type": "receive"
    }
  ],
  "bytecode": "0x60e0604052601c60a08190527f4275696c64696e6720556e73746f707061626c6520417070732121210000000060c090815261003e916000919061008e565b506001805460ff19169055600060025534801561005a57600080fd5b5060405161095238038061095283398101604081905261007991610127565b60601b6001600160601b031916608052610190565b82805461009a90610155565b90600052602060002090601f0160209004810192826100bc5760008555610102565b82601f106100d557805160ff1916838001178555610102565b82800160010185558215610102579182015b828111156101025782518255916020019190600101906100e7565b5061010e929150610112565b5090565b5b8082111561010e5760008155600101610113565b600060208284031215610138578081fd5b81516001600160a01b038116811461014e578182fd5b9392505050565b600181811c9082168061016957607f821691505b6020821081141561018a57634e487b7160e01b600052602260045260246000fd5b50919050565b60805160601c6107976101bb6000396000818160a9015281816101a3015261020901526107976000f3fe6080604052600436106100745760003560e01c8063a41368621161004e578063a41368621461010c578063cea49c3c1461011f578063e0a73a931461014c578063ef690cc01461017657600080fd5b80633ccfd60b146100805780638da5cb5b1461009757806397feba9d146100e857600080fd5b3661007b57005b600080fd5b34801561008c57600080fd5b50610095610198565b005b3480156100a357600080fd5b506100cb7f000000000000000000000000000000000000000000000000000000000000000081565b6040516001600160a01b0390911681526020015b60405180910390f35b3480156100f457600080fd5b506100fe60025481565b6040519081526020016100df565b61009561011a366004610560565b6102c2565b34801561012b57600080fd5b506100fe61013a366004610532565b60036020526000908152604090205481565b34801561015857600080fd5b506001546101669060ff1681565b60405190151581526020016100df565b34801561018257600080fd5b5061018b61039a565b6040516100df9190610655565b336001600160a01b037f000000000000000000000000000000000000000000000000000000000000000016146102055760405162461bcd60e51b815260206004820152600d60248201526c2737ba103a34329027bbb732b960991b60448201526064015b60405180910390fd5b60007f00000000000000000000000000000000000000000000000000000000000000006001600160a01b03164760405160006040518083038185875af1925050503d8060008114610272576040519150601f19603f3d011682016040523d82523d6000602084013e610277565b606091505b50509050806102bf5760405162461bcd60e51b81526020600482015260146024820152732330b4b632b2103a379039b2b7321022ba3432b960611b60448201526064016101fc565b50565b6102e5604051806060016040528060218152602001610741602191398233610428565b80516102f8906000906020840190610499565b5060016002600082825461030c91906106cb565b90915550503360009081526003602052604081208054600192906103319084906106cb565b9091555050341561034d576001805460ff191681179055610358565b6001805460ff191690555b60405133907f94cbd7e04dca26a7667654f6448b2ca0a40fec602118dc5fd8c82b9cf3c645ad9061038f9084903480151591610668565b60405180910390a250565b600080546103a7906106ef565b80601f01602080910402602001604051908101604052809291908181526020018280546103d3906106ef565b80156104205780601f106103f557610100808354040283529160200191610420565b820191906000526020600020905b81548152906001019060200180831161040357829003601f168201915b505050505081565b61046f8383836040516024016104409392919061068d565b60408051601f198184030181529190526020810180516001600160e01b03166395ed019560e01b179052610474565b505050565b6102bf8160006a636f6e736f6c652e6c6f679050600080835160208501845afa505050565b8280546104a5906106ef565b90600052602060002090601f0160209004810192826104c7576000855561050d565b82601f106104e057805160ff191683800117855561050d565b8280016001018555821561050d579182015b8281111561050d5782518255916020019190600101906104f2565b5061051992915061051d565b5090565b5b80821115610519576000815560010161051e565b600060208284031215610543578081fd5b81356001600160a01b0381168114610559578182fd5b9392505050565b600060208284031215610571578081fd5b813567ffffffffffffffff80821115610588578283fd5b818401915084601f83011261059b578283fd5b8135818111156105ad576105ad61072a565b604051601f8201601f19908116603f011681019083821181831017156105d5576105d561072a565b816040528281528760208487010111156105ed578586fd5b826020860160208301379182016020019490945295945050505050565b60008151808452815b8181101561062f57602081850181015186830182015201610613565b818111156106405782602083870101525b50601f01601f19169290920160200192915050565b602081526000610559602083018461060a565b60608152600061067b606083018661060a565b93151560208301525060400152919050565b6060815260006106a0606083018661060a565b82810360208401526106b2818661060a565b91505060018060a01b0383166040830152949350505050565b600082198211156106ea57634e487b7160e01b81526011600452602481fd5b500190565b600181811c9082168061070357607f821691505b6020821081141561072457634e487b7160e01b600052602260045260246000fd5b50919050565b634e487b7160e01b600052604160045260246000fdfe53657474696e67206e6577206772656574696e6720272573272066726f6d202573a26469706673582212203ff06b06c862d70c624fa2d401f11070a055a597556751b8f7d7cdb83cc7f41e64736f6c63430008040033",
  "linkReferences": {},
  "deployedLinkReferences": {}
}